{
  "_format": "hh-sol-artifact-1",
  "contractName": "MyNFT",
  "sourceName": "contracts/MyNFT.sol",
  "abi": [
    {
      "inputs": [],
      "stateMutability": "nonpayable",
      "type": "constructor"
    },
    {
      "anonymous": false,
      "inputs": [
        {
          "indexed": true,
          "internalType": "address",
          "name": "owner",
          "type": "address"
        },
        {
          "indexed": true,
          "internalType": "address",
          "name": "approved",
          "type": "address"
        },
        {
          "indexed": true,
          "internalType": "uint256",
          "name": "tokenId",
          "type": "uint256"
        }
      ],
      "name": "Approval",
      "type": "event"
    },
    {
      "anonymous": false,
      "inputs": [
        {
          "indexed": true,
          "internalType": "address",
          "name": "owner",
          "type": "address"
        },
        {
          "indexed": true,
          "internalType": "address",
          "name": "operator",
          "type": "address"
        },
        {
          "indexed": false,
          "internalType": "bool",
          "name": "approved",
          "type": "bool"
        }
      ],
      "name": "ApprovalForAll",
      "type": "event"
    },
    {
      "anonymous": false,
      "inputs": [
        {
          "indexed": false,
          "internalType": "address",
          "name": "sender",
          "type": "address"
        },
        {
          "indexed": false,
          "internalType": "uint256",
          "name": "tokenId",
          "type": "uint256"
        }
      ],
      "name": "NewEpicNFTMinted",
      "type": "event"
    },
    {
      "anonymous": false,
      "inputs": [
        {
          "indexed": true,
          "internalType": "address",
          "name": "from",
          "type": "address"
        },
        {
          "indexed": true,
          "internalType": "address",
          "name": "to",
          "type": "address"
        },
        {
          "indexed": true,
          "internalType": "uint256",
          "name": "tokenId",
          "type": "uint256"
        }
      ],
      "name": "Transfer",
      "type": "event"
    },
    {
      "inputs": [
        {
          "internalType": "address",
          "name": "to",
          "type": "address"
        },
        {
          "internalType": "uint256",
          "name": "tokenId",
          "type": "uint256"
        }
      ],
      "name": "approve",
      "outputs": [],
      "stateMutability": "nonpayable",
      "type": "function"
    },
    {
      "inputs": [
        {
          "internalType": "address",
          "name": "owner",
          "type": "address"
        }
      ],
      "name": "balanceOf",
      "outputs": [
        {
          "internalType": "uint256",
          "name": "",
          "type": "uint256"
        }
      ],
      "stateMutability": "view",
      "type": "function"
    },
    {
      "inputs": [
        {
          "internalType": "uint256",
          "name": "tokenId",
          "type": "uint256"
        }
      ],
      "name": "getApproved",
      "outputs": [
        {
          "internalType": "address",
          "name": "",
          "type": "address"
        }
      ],
      "stateMutability": "view",
      "type": "function"
    },
    {
      "inputs": [],
      "name": "getTotalNFTsMintedSoFar",
      "outputs": [
        {
          "internalType": "uint256",
          "name": "",
          "type": "uint256"
        }
      ],
      "stateMutability": "view",
      "type": "function"
    },
    {
      "inputs": [
        {
          "internalType": "address",
          "name": "owner",
          "type": "address"
        },
        {
          "internalType": "address",
          "name": "operator",
          "type": "address"
        }
      ],
      "name": "isApprovedForAll",
      "outputs": [
        {
          "internalType": "bool",
          "name": "",
          "type": "bool"
        }
      ],
      "stateMutability": "view",
      "type": "function"
    },
    {
      "inputs": [],
      "name": "makeAnEpicNFT",
      "outputs": [],
      "stateMutability": "nonpayable",
      "type": "function"
    },
    {
      "inputs": [],
      "name": "name",
      "outputs": [
        {
          "internalType": "string",
          "name": "",
          "type": "string"
        }
      ],
      "stateMutability": "view",
      "type": "function"
    },
    {
      "inputs": [
        {
          "internalType": "uint256",
          "name": "tokenId",
          "type": "uint256"
        }
      ],
      "name": "ownerOf",
      "outputs": [
        {
          "internalType": "address",
          "name": "",
          "type": "address"
        }
      ],
      "stateMutability": "view",
      "type": "function"
    },
    {
      "inputs": [
        {
          "internalType": "uint256",
          "name": "tokenId",
          "type": "uint256"
        }
      ],
      "name": "pickRandomFirstWord",
      "outputs": [
        {
          "internalType": "string",
          "name": "",
          "type": "string"
        }
      ],
      "stateMutability": "view",
      "type": "function"
    },
    {
      "inputs": [
        {
          "internalType": "uint256",
          "name": "tokenId",
          "type": "uint256"
        }
      ],
      "name": "pickRandomSecondWord",
      "outputs": [
        {
          "internalType": "string",
          "name": "",
          "type": "string"
        }
      ],
      "stateMutability": "view",
      "type": "function"
    },
    {
      "inputs": [
        {
          "internalType": "uint256",
          "name": "tokenId",
          "type": "uint256"
        }
      ],
      "name": "pickRandomThirdWord",
      "outputs": [
        {
          "internalType": "string",
          "name": "",
          "type": "string"
        }
      ],
      "stateMutability": "view",
      "type": "function"
    },
    {
      "inputs": [
        {
          "internalType": "address",
          "name": "from",
          "type": "address"
        },
        {
          "internalType": "address",
          "name": "to",
          "type": "address"
        },
        {
          "internalType": "uint256",
          "name": "tokenId",
          "type": "uint256"
        }
      ],
      "name": "safeTransferFrom",
      "outputs": [],
      "stateMutability": "nonpayable",
      "type": "function"
    },
    {
      "inputs": [
        {
          "internalType": "address",
          "name": "from",
          "type": "address"
        },
        {
          "internalType": "address",
          "name": "to",
          "type": "address"
        },
        {
          "internalType": "uint256",
          "name": "tokenId",
          "type": "uint256"
        },
        {
          "internalType": "bytes",
          "name": "_data",
          "type": "bytes"
        }
      ],
      "name": "safeTransferFrom",
      "outputs": [],
      "stateMutability": "nonpayable",
      "type": "function"
    },
    {
      "inputs": [
        {
          "internalType": "address",
          "name": "operator",
          "type": "address"
        },
        {
          "internalType": "bool",
          "name": "approved",
          "type": "bool"
        }
      ],
      "name": "setApprovalForAll",
      "outputs": [],
      "stateMutability": "nonpayable",
      "type": "function"
    },
    {
      "inputs": [
        {
          "internalType": "bytes4",
          "name": "interfaceId",
          "type": "bytes4"
        }
      ],
      "name": "supportsInterface",
      "outputs": [
        {
          "internalType": "bool",
          "name": "",
          "type": "bool"
        }
      ],
      "stateMutability": "view",
      "type": "function"
    },
    {
      "inputs": [],
      "name": "symbol",
      "outputs": [
        {
          "internalType": "string",
          "name": "",
          "type": "string"
        }
      ],
      "stateMutability": "view",
      "type": "function"
    },
    {
      "inputs": [
        {
          "internalType": "uint256",
          "name": "tokenId",
          "type": "uint256"
        }
      ],
      "name": "tokenURI",
      "outputs": [
        {
          "internalType": "string",
          "name": "",
          "type": "string"
        }
      ],
      "stateMutability": "view",
      "type": "function"
    },
    {
      "inputs": [
        {
          "internalType": "address",
          "name": "from",
          "type": "address"
        },
        {
          "internalType": "address",
          "name": "to",
          "type": "address"
        },
        {
          "internalType": "uint256",
          "name": "tokenId",
          "type": "uint256"
        }
      ],
      "name": "transferFrom",
      "outputs": [],
      "stateMutability": "nonpayable",
      "type": "function"
    }
  ],
  "bytecode": "0x608060405260405180610160016040528061012f8152602001620075c661012f91396008908051906020019062000038929190620038fa565b50604051806118c001604052806040518060400160405280600d81526020017f41697368206d657261687261680000000000000000000000000000000000000081525081526020016040518060400160405280600d81526020017f416e6164616d612062726561640000000000000000000000000000000000000081525081526020016040518060400160405280600581526020017f416e70616e00000000000000000000000000000000000000000000000000000081525081526020016040518060400160405280600f81526020017f417070616d2028486f707065727329000000000000000000000000000000000081525081526020016040518060400160405280600681526020017f4172626f7564000000000000000000000000000000000000000000000000000081525081526020016040518060400160405280600581526020017f417265706100000000000000000000000000000000000000000000000000000081525081526020016040518060400160405280600481526020017f426162610000000000000000000000000000000000000000000000000000000081525081526020016040518060400160405280600581526020017f4261626b6100000000000000000000000000000000000000000000000000000081525081526020016040518060400160405280600581526020017f426167656c00000000000000000000000000000000000000000000000000000081525081526020016040518060400160405280600881526020017f426167756574746500000000000000000000000000000000000000000000000081525081526020016040518060400160405280600a81526020017f42616b61726b68616e690000000000000000000000000000000000000000000081525081526020016040518060400160405280600c81526020017f42616c6570206b6f726b756e000000000000000000000000000000000000000081525081526020016040518060400160405280600581526020017f42616d6d7900000000000000000000000000000000000000000000000000000081525081526020016040518060400160405280600c81526020017f42616e616e61206272656164000000000000000000000000000000000000000081525081526020016040518060400160405280600781526020017f42616e6e6f636b0000000000000000000000000000000000000000000000000081525081526020016040518060400160405280600a81526020017f426172612042726974680000000000000000000000000000000000000000000081525081526020016040518060400160405280600d81526020017f426172626172692062726561640000000000000000000000000000000000000081525081526020016040518060400160405280600981526020017f4261726d627261636b000000000000000000000000000000000000000000000081525081526020016040518060400160405280600981526020017f4261726d2063616b65000000000000000000000000000000000000000000000081525081526020016040518060400160405280600781526020017f426173746f6e650000000000000000000000000000000000000000000000000081525081526020016040518060400160405280600581526020017f42617a696e00000000000000000000000000000000000000000000000000000081525081526020016040518060400160405280600781526020017f42617a6c616d610000000000000000000000000000000000000000000000000081525081526020016040518060400160405280600a81526020017f426565722062726561640000000000000000000000000000000000000000000081525081526020016040518060400160405280600e81526020017f42656c6769616e20776166666c6500000000000000000000000000000000000081525081526020016040518060400160405280600681526020017f4268616b7269000000000000000000000000000000000000000000000000000081525081526020016040518060400160405280600581526020017f4269616c7900000000000000000000000000000000000000000000000000000081525081526020016040518060400160405280600481526020017f42696e670000000000000000000000000000000000000000000000000000000081525081526020016040518060400160405280600881526020017f426973636f74746900000000000000000000000000000000000000000000000081525081526020016040518060400160405280600781526020017f426973637569740000000000000000000000000000000000000000000000000081525081526020016040518060400160405280600b81526020017f426c61636b20627265616400000000000000000000000000000000000000000081525081526020016040518060400160405280600481526020017f426c61610000000000000000000000000000000000000000000000000000000081525081526020016040518060400160405280600681526020017f426f6c616e69000000000000000000000000000000000000000000000000000081525081526020016040518060400160405280600c81526020017f426f6c6f20646f206361636f000000000000000000000000000000000000000081525081526020016040518060400160405280600881526020017f426f726c656e676f00000000000000000000000000000000000000000000000081525081526020016040518060400160405280600a81526020017f426f726f64696e736b790000000000000000000000000000000000000000000081525081526020016040518060400160405280600581526020017f426f756c6500000000000000000000000000000000000000000000000000000081525081526020016040518060400160405280600a81526020017f427265616420726f6c6c0000000000000000000000000000000000000000000081525081526020016040518060400160405280600a81526020017f4272656164737469636b0000000000000000000000000000000000000000000081525081526020016040518060400160405280600781526020017f4272696f6368650000000000000000000000000000000000000000000000000081525081526020016040518060400160405280600481526020017f42726f610000000000000000000000000000000000000000000000000000000081525081526020016040518060400160405280600b81526020017f42726f776e20627265616400000000000000000000000000000000000000000081525081526020016040518060400160405280600681526020017f4275626c696b000000000000000000000000000000000000000000000000000081525081526020016040518060400160405280600e81526020017f43616e616469616e20576869746500000000000000000000000000000000000081525081526020016040518060400160405280600c81526020017f436172726f74206272656164000000000000000000000000000000000000000081525081526020016040518060400160405280600781526020017f4365736e6963610000000000000000000000000000000000000000000000000081525081526020016040518060400160405280600781526020017f4368616c6c61680000000000000000000000000000000000000000000000000081525081526020016040518060400160405280600781526020017f436861706174690000000000000000000000000000000000000000000000000081525081526020016040518060400160405280600e81526020017f436869636b70656120627265616400000000000000000000000000000000000081525081526020016040518060400160405280600981526020017f43686f6c65726d7573000000000000000000000000000000000000000000000081525081526020016040518060400160405280600f81526020017f4368726973746d6173207761666572000000000000000000000000000000000081525081526020016040518060400160405280600881526020017f436961626174746100000000000000000000000000000000000000000000000081525081526020016040518060400160405280601081526020017f436f70706961204665727261726573650000000000000000000000000000000081525081526020016040518060400160405280600981526020017f436f726e6272656164000000000000000000000000000000000000000000000081525081526020016040518060400160405280600c81526020017f436f7474616765206c6f6166000000000000000000000000000000000000000081525081526020016040518060400160405280600781526020017f436f7a6f6e61630000000000000000000000000000000000000000000000000081525081526020016040518060400160405280600781526020017f437261636b65720000000000000000000000000000000000000000000000000081525081526020016040518060400160405280600581526020017f437265706500000000000000000000000000000000000000000000000000000081525081526020016040518060400160405280600b81526020017f437269737020627265616400000000000000000000000000000000000000000081525081526020016040518060400160405280600781526020017f4372756d7065740000000000000000000000000000000000000000000000000081525081526020016040518060400160405280600b81526020017f437562616e20627265616400000000000000000000000000000000000000000081525081526020016040518060400160405280600b81526020017f437572727920627265616400000000000000000000000000000000000000000081525081526020016040518060400160405280600681526020017f44616d706572000000000000000000000000000000000000000000000000000081525081526020016040518060400160405280600a81526020017f44616d70666e7564656c0000000000000000000000000000000000000000000081525081526020016040518060400160405280600881526020017f446f726179616b6900000000000000000000000000000000000000000000000081525081526020016040518060400160405280600481526020017f446f73610000000000000000000000000000000000000000000000000000000081525081526020016040518060400160405280600781526020017f456767657474650000000000000000000000000000000000000000000000000081525081526020016040518060400160405280600e81526020017f456e676c697368206d756666696e00000000000000000000000000000000000081525081526020016040518060400160405280600481526020017f4661726c0000000000000000000000000000000000000000000000000000000081525081526020016040518060400160405280600681526020017f46696c6f6e65000000000000000000000000000000000000000000000000000081525081526020016040518060400160405280600981526020017f466c61746272656164000000000000000000000000000000000000000000000081525081526020016040518060400160405280600881526020017f466c61746b616b6100000000000000000000000000000000000000000000000081525081526020016040518060400160405280600881526020017f466f63616363696100000000000000000000000000000000000000000000000081525081526020016040518060400160405280600881526020017f466f75676173736500000000000000000000000000000000000000000000000081525081526020016040518060400160405280600c81526020017f47726168616d206272656164000000000000000000000000000000000000000081525081526020016040518060400160405280601381526020017f477265656e206f6e696f6e2070616e63616b650000000000000000000000000081525081526020016040518060400160405280600881526020017f48616c6c756c6c6100000000000000000000000000000000000000000000000081525081526020016040518060400160405280601081526020017f4861726420646f7567682062726561640000000000000000000000000000000081525081526020016040518060400160405280600a81526020017f486172646562726f6f640000000000000000000000000000000000000000000081525081526020016040518060400160405280600881526020017f486172647461636b00000000000000000000000000000000000000000000000081525081526020016040518060400160405280600881526020017f48696d626173686100000000000000000000000000000000000000000000000081525081526020016040518060400160405280601a81526020017f486f7420616e642073706963792063686565736520627265616400000000000081525081526020016040518060400160405280600681526020017f496e6a657261000000000000000000000000000000000000000000000000000081525081526020016040518060400160405280601581526020017f4a6f686e6e7963616b65206f7220486f6563616b65000000000000000000000081525081526020016040518060400160405280600581526020017f4b6127616b00000000000000000000000000000000000000000000000000000081525081526020016040518060400160405280600681526020017f4b616c616368000000000000000000000000000000000000000000000000000081525081526020016040518060400160405280600581526020017f4b616d697200000000000000000000000000000000000000000000000000000081525081526020016040518060400160405280600d81526020017f4b68616e6f6d20627565616e670000000000000000000000000000000000000081525081526020016040518060400160405280600781526020017f4b68616b6872610000000000000000000000000000000000000000000000000081525081526020016040518060400160405280600581526020017f4b6875627a00000000000000000000000000000000000000000000000000000081525081526020016040518060400160405280600581526020017f4b69666c6900000000000000000000000000000000000000000000000000000081525081526020016040518060400160405280600581526020017f4b6973726100000000000000000000000000000000000000000000000000000081525081526020016040518060400160405280600681526020017f4b6974636861000000000000000000000000000000000000000000000000000081525081526020016040518060400160405280600681526020017f4b756c636861000000000000000000000000000000000000000000000000000081525081526020016040518060400160405280600681526020017f4c6167616e61000000000000000000000000000000000000000000000000000081525081526020016040518060400160405280600581526020017f4c61686f6800000000000000000000000000000000000000000000000000000081525081526020016040518060400160405280600681526020017f4c616e676f73000000000000000000000000000000000000000000000000000081525081526020016040518060400160405280600781526020017f4c616f62696e670000000000000000000000000000000000000000000000000081525081526020016040518060400160405280600681526020017f4c6176617368000000000000000000000000000000000000000000000000000081525081526020016040518060400160405280600581526020017f4c6566736500000000000000000000000000000000000000000000000000000081525081526020016040518060400160405280600581526020017f4c696d706100000000000000000000000000000000000000000000000000000081525081526020016040518060400160405280600881526020017f4c796520726f6c6c00000000000000000000000000000000000000000000000081525081526020016040518060400160405280600781526020017f4d616c6f6f67610000000000000000000000000000000000000000000000000081525081526020016040518060400160405280600d81526020017f4d616c746573652062726561640000000000000000000000000000000000000081525081526020016040518060400160405280600681526020017f4d616e746f75000000000000000000000000000000000000000000000000000081525081526020016040518060400160405280600781526020017f4d61726b6f6f6b0000000000000000000000000000000000000000000000000081525081526020016040518060400160405280600a81526020017f4d6172726171756574610000000000000000000000000000000000000000000081525081526020016040518060400160405280600681526020017f4d61747a6168000000000000000000000000000000000000000000000000000081525081526020016040518060400160405280600881526020017f4d656c6f6e70616e00000000000000000000000000000000000000000000000081525081526020016040518060400160405280600581526020017f4d6963686500000000000000000000000000000000000000000000000000000081525081526020016040518060400160405280600881526020017f4d6963686574746100000000000000000000000000000000000000000000000081525081526020016040518060400160405280600981526020017f4d696c6b204c6f6166000000000000000000000000000000000000000000000081525081526020016040518060400160405280600a81526020017f4d696c6b2042726561640000000000000000000000000000000000000000000081525081526020016040518060400160405280600981526020017f4d696c6b20726f6c6c000000000000000000000000000000000000000000000081525081526020016040518060400160405280600781526020017f4d6f6c6c6574650000000000000000000000000000000000000000000000000081525081526020016040518060400160405280600c81526020017f4d6f686e666c65737365726c000000000000000000000000000000000000000081525081526020016040518060400160405280601481526020017f4d6f6e747265616c2d7374796c6520626167656c00000000000000000000000081525081526020016040518060400160405280600481526020017f4e61616e0000000000000000000000000000000000000000000000000000000081525081526020016040518060400160405280600581526020017f4e676f6d6500000000000000000000000000000000000000000000000000000081525081526020016040518060400160405280601481526020017f4f627761727a616e656b206b72616b6f77736b6900000000000000000000000081525081526020016040518060400160405280600b81526020017f5061696e206465206d696500000000000000000000000000000000000000000081525081526020016040518060400160405280600781526020017f50616d62617a6f0000000000000000000000000000000000000000000000000081525081526020016040518060400160405280600981526020017f50616e2064756c6365000000000000000000000000000000000000000000000081525081526020016040518060400160405280600a81526020017f50616e6272696f6368650000000000000000000000000000000000000000000081525081526020016040518060400160405280600881526020017f50616e646573616c00000000000000000000000000000000000000000000000081525081526020016040518060400160405280600781526020017f50616e646f726f0000000000000000000000000000000000000000000000000081525081526020016040518060400160405280600c81526020017f50616e652063617261736175000000000000000000000000000000000000000081525081526020016040518060400160405280601081526020017f50616e6520646920416c74616d7572610000000000000000000000000000000081525081526020016040518060400160405280600d81526020017f50616e6520746963696e6573650000000000000000000000000000000000000081525081526020016040518060400160405280600981526020017f50616e6574746f6e65000000000000000000000000000000000000000000000081525081526020016040518060400160405280600b81526020017f50616e666f63616363696100000000000000000000000000000000000000000081525081526020016040518060400160405280601081526020017f5061706164756d206f722050617061640000000000000000000000000000000081525081526020016040518060400160405280600781526020017f506172617468610000000000000000000000000000000000000000000000000081525081526020016040518060400160405280601281526020017f5061726f747461206f72204261726f747461000000000000000000000000000081525081526020016040518060400160405280600a81526020017f506178696d61746869610000000000000000000000000000000000000000000081525081526020016040518060400160405280600981526020017f506567206272656164000000000000000000000000000000000000000000000081525081526020016040518060400160405280600581526020017f50656e696100000000000000000000000000000000000000000000000000000081525081526020016040518060400160405280600481526020017f506974610000000000000000000000000000000000000000000000000000000081525081526020016040518060400160405280600581526020017f50697a7a6100000000000000000000000000000000000000000000000000000081525081526020016040518060400160405280600781526020017f50696164696e610000000000000000000000000000000000000000000000000081525081526020016040518060400160405280600881526020017f506973746f6c657400000000000000000000000000000000000000000000000081525081526020016040518060400160405280600681526020017f506f67616361000000000000000000000000000000000000000000000000000081525081526020016040518060400160405280601681526020017f506f72747567756573652073776565742062726561640000000000000000000081525081526020016040518060400160405280600c81526020017f506f7461746f206272656164000000000000000000000000000000000000000081525081526020016040518060400160405280600881526020017f506f7462726f6f6400000000000000000000000000000000000000000000000081525081526020016040518060400160405280600781526020017f507265747a656c0000000000000000000000000000000000000000000000000081525081526020016040518060400160405280600581526020017f50726f6a6100000000000000000000000000000000000000000000000000000081525081526020016040518060400160405280600c81526020017f50756d7065726e69636b656c000000000000000000000000000000000000000081525081526020016040518060400160405280600d81526020017f50756d706b696e2062726561640000000000000000000000000000000000000081525081526020016040518060400160405280601f81526020017f507572616e20506f6c692028616c736f2063616c6c6564204f6262617475290081525081526020016040518060400160405280600881526020017f426f626261746c7500000000000000000000000000000000000000000000000081525081526020016040518060400160405280600881526020017f42616b7368616c7500000000000000000000000000000000000000000000000081525081526020016040518060400160405280600781526020017f516973746962690000000000000000000000000000000000000000000000000081525081526020016040518060400160405280600b81526020017f517569636b20627265616400000000000000000000000000000000000000000081525081526020016040518060400160405280600c81526020017f526577656e61206272656164000000000000000000000000000000000000000081525081526020016040518060400160405280600a81526020017f526963652062726561640000000000000000000000000000000000000000000081525081526020016040518060400160405280600681526020017f526965736b61000000000000000000000000000000000000000000000000000081525081526020016040518060400160405280600a81526020017f526f6767656c6368656e0000000000000000000000000000000000000000000081525081526020016040518060400160405280600481526020017f526f74690000000000000000000000000000000000000000000000000000000081525081526020016040518060400160405280600a81526020017f526f746920626f6c656e0000000000000000000000000000000000000000000081525081526020016040518060400160405280600a81526020017f526f74692062756179610000000000000000000000000000000000000000000081525081526020016040518060400160405280600a81526020017f526f74692063616e61690000000000000000000000000000000000000000000081525081526020016040518060400160405280600781526020017f52756762726f640000000000000000000000000000000000000000000000000081525081526020016040518060400160405280600b81526020017f52756d616c6920526f746900000000000000000000000000000000000000000081525081526020016040518060400160405280600981526020017f5279616e696e6a756e000000000000000000000000000000000000000000000081525081526020016040518060400160405280600981526020017f527965206272656164000000000000000000000000000000000000000000000081525081526020016040518060400160405280601181526020017f53616372616d656e74616c20627265616400000000000000000000000000000081525081526020016040518060400160405280600981526020017f53616a206272656164000000000000000000000000000000000000000000000081525081526020016040518060400160405280600681526020017f53616d6f6f6e000000000000000000000000000000000000000000000000000081525081526020016040518060400160405280601181526020017f53616c742d726973696e6720627265616400000000000000000000000000000081525081526020016040518060400160405280600681526020017f53616e67616b000000000000000000000000000000000000000000000000000081525081526020016040518060400160405280600581526020017f53636f6e6500000000000000000000000000000000000000000000000000000081525081526020016040518060400160405280600681526020017f53676162656f000000000000000000000000000000000000000000000000000081525081526020016040518060400160405280600781526020017f536869726d616c0000000000000000000000000000000000000000000000000081525081526020016040518060400160405280600581526020017f53686f746900000000000000000000000000000000000000000000000000000081525081526020016040518060400160405280600a81526020017f536f64612062726561640000000000000000000000000000000000000000000081525081526020016040518060400160405280600f81526020017f536f7572646f756768206272656164000000000000000000000000000000000081525081526020016040518060400160405280600b81526020017f5370656c7420627265616400000000000000000000000000000000000000000081525081526020016040518060400160405280600e81526020017f5370726f7574656420627265616400000000000000000000000000000000000081525081526020016040518060400160405280601581526020017f5461626f6f6e206272656164206f72204c61666661000000000000000000000081525081526020016040518060400160405280600681526020017f54616674616e000000000000000000000000000000000000000000000000000081525081526020016040518060400160405280600d81526020017f54616e646f6f722062726561640000000000000000000000000000000000000081525081526020016040518060400160405280600781526020017f54656163616b650000000000000000000000000000000000000000000000000081525081526020016040518060400160405280600681526020017f54656c657261000000000000000000000000000000000000000000000000000081525081526020016040518060400160405280600b81526020017f546578617320746f61737400000000000000000000000000000000000000000081525081526020016040518060400160405280600b81526020017f546967657220627265616400000000000000000000000000000000000000000081525081526020016040518060400160405280600881526020017f546f7274696c6c6100000000000000000000000000000000000000000000000081525081526020016040518060400160405280600881526020017f54736f7572656b6900000000000000000000000000000000000000000000000081525081526020016040518060400160405280600a81526020017f54746f6e677070616e670000000000000000000000000000000000000000000081525081526020016040518060400160405280600881526020017f54756e6e62726f6400000000000000000000000000000000000000000000000081525081526020016040518060400160405280600881526020017f557474617070616d00000000000000000000000000000000000000000000000081525081526020016040518060400160405280600781526020017f56616e6f636b610000000000000000000000000000000000000000000000000081525081526020016040518060400160405280600c81526020017f5669656e6e61206272656164000000000000000000000000000000000000000081525081526020016040518060400160405280600c81526020017f576167616669206272656164000000000000000000000000000000000000000081525081526020016040518060400160405280600b81526020017f576869746520627265616400000000000000000000000000000000000000000081525081526020016040518060400160405280601181526020017f57686f6c6520776865617420627265616400000000000000000000000000000081525081526020016040518060400160405280600581526020017f5975666b6100000000000000000000000000000000000000000000000000000081525081526020016040518060400160405280600481526020017f5a6f70660000000000000000000000000000000000000000000000000000000081525081526020016040518060400160405280600881526020017f5a7769656261636b00000000000000000000000000000000000000000000000081525081525060099060c662002df79291906200398b565b50604051806103c001604052806040518060400160405280600581526020017f41696f6c6900000000000000000000000000000000000000000000000000000081525081526020016040518060400160405280600581526020017f416a76617200000000000000000000000000000000000000000000000000000081525081526020016040518060400160405280600481526020017f416d62610000000000000000000000000000000000000000000000000000000081525081526020016040518060400160405280600d81526020017f416c667265646f2073617563650000000000000000000000000000000000000081525081526020016040518060400160405280600d81526020017f416e63686f76792073617563650000000000000000000000000000000000000081525081526020016040518060400160405280600681526020017f4175206a7573000000000000000000000000000000000000000000000000000081525081526020016040518060400160405280600e81526020017f426172626563756520736175636500000000000000000000000000000000000081525081526020016040518060400160405280600f81526020017f426561726e61697365207361756365000000000000000000000000000000000081525081526020016040518060400160405280600c81526020017f426c61636b20706570706572000000000000000000000000000000000000000081525081526020016040518060400160405280600d81526020017f42696265722073616c636173690000000000000000000000000000000000000081525081526020016040518060400160405280600581526020017f427265616400000000000000000000000000000000000000000000000000000081525081526020016040518060400160405280600681526020017f427574746572000000000000000000000000000000000000000000000000000081525081526020016040518060400160405280600a81526020017f43616e652073617563650000000000000000000000000000000000000000000081525081526020016040518060400160405280600d81526020017f4368696c6920706570706572730000000000000000000000000000000000000081525081526020016040518060400160405280600781526020017f436172616d656c0000000000000000000000000000000000000000000000000081525081526020016040518060400160405280600681526020017f436865657365000000000000000000000000000000000000000000000000000081525081526020016040518060400160405280600981526020017f4368696c69206f696c000000000000000000000000000000000000000000000081525081526020016040518060400160405280600b81526020017f4368696c6920736175636500000000000000000000000000000000000000000081525081526020016040518060400160405280600b81526020017f4368696d6963687572726900000000000000000000000000000000000000000081525081526020016040518060400160405280600f81526020017f4372616e6265727279207361756365000000000000000000000000000000000081525081526020016040518060400160405280600581526020017f437265616d00000000000000000000000000000000000000000000000000000081525081526020016040518060400160405280601081526020017f43686f636f6c617465207370726561640000000000000000000000000000000081525081526020016040518060400160405280600f81526020017f43686f636f6c617465207379727570000000000000000000000000000000000081525081526020016040518060400160405280600681526020017f43687261696e000000000000000000000000000000000000000000000000000081525081526020016040518060400160405280600781526020017f436875746e65790000000000000000000000000000000000000000000000000081525081526020016040518060400160405280600e81526020017f436f636b7461696c20736175636500000000000000000000000000000000000081525081526020016040518060400160405280600881526020017f436f6c65736c617700000000000000000000000000000000000000000000000081525081526020016040518060400160405280600781526020017f436f6d706f74650000000000000000000000000000000000000000000000000081525081526020016040518060400160405280601281526020017f437275736865642072656420706570706572000000000000000000000000000081525081526020016040518060400160405280600381526020017f4469700000000000000000000000000000000000000000000000000000000000815250815250600a90601e620034fe929190620039f2565b506040518061012001604052806040518060400160405280600481526020017f426565660000000000000000000000000000000000000000000000000000000081525081526020016040518060400160405280600481526020017f466973680000000000000000000000000000000000000000000000000000000081525081526020016040518060400160405280600481526020017f476f61740000000000000000000000000000000000000000000000000000000081525081526020016040518060400160405280600481526020017f4c616d620000000000000000000000000000000000000000000000000000000081525081526020016040518060400160405280600881526020017f4d65617462616c6c00000000000000000000000000000000000000000000000081525081526020016040518060400160405280600481526020017f506f726b0000000000000000000000000000000000000000000000000000000081525081526020016040518060400160405280600781526020017f506f756c7472790000000000000000000000000000000000000000000000000081525081526020016040518060400160405280600781526020017f536175736167650000000000000000000000000000000000000000000000000081525081526020016040518060400160405280600781526020017f536561666f6f6400000000000000000000000000000000000000000000000000815250815250600b9060096200372e92919062003a59565b503480156200373c57600080fd5b506040518060400160405280600981526020017f4368656573654e465400000000000000000000000000000000000000000000008152506040518060400160405280600381526020017f43485a00000000000000000000000000000000000000000000000000000000008152508160009080519060200190620037c1929190620038fa565b508060019080519060200190620037da929190620038fa565b505050620038286040518060400160405280601581526020017f4465706c6f79696e6720636f6e74726163742e2e2e00000000000000000000008152506200382e60201b620012211760201c565b62003c7a565b620038ce8160405160240162003845919062003b8e565b6040516020818303038152906040527f41304fac000000000000000000000000000000000000000000000000000000007bffffffffffffffffffffffffffffffffffffffffffffffffffffffff19166020820180517bffffffffffffffffffffffffffffffffffffffffffffffffffffffff8381831617835250505050620038d160201b60201c565b50565b60008151905060006a636f6e736f6c652e6c6f679050602083016000808483855afa5050505050565b828054620039089062003c04565b90600052602060002090601f0160209004810192826200392c576000855562003978565b82601f106200394757805160ff191683800117855562003978565b8280016001018555821562003978579182015b82811115620039775782518255916020019190600101906200395a565b5b50905062003987919062003ac0565b5090565b828054828255906000526020600020908101928215620039df579160200282015b82811115620039de578251829080519060200190620039cd929190620038fa565b5091602001919060010190620039ac565b5b509050620039ee919062003adf565b5090565b82805482825590600052602060002090810192821562003a46579160200282015b8281111562003a4557825182908051906020019062003a34929190620038fa565b509160200191906001019062003a13565b5b50905062003a55919062003adf565b5090565b82805482825590600052602060002090810192821562003aad579160200282015b8281111562003aac57825182908051906020019062003a9b929190620038fa565b509160200191906001019062003a7a565b5b50905062003abc919062003adf565b5090565b5b8082111562003adb57600081600090555060010162003ac1565b5090565b5b8082111562003b03576000818162003af9919062003b07565b5060010162003ae0565b5090565b50805462003b159062003c04565b6000825580601f1062003b29575062003b4a565b601f01602090049060005260206000209081019062003b49919062003ac0565b5b50565b600062003b5a8262003bb2565b62003b66818562003bbd565b935062003b7881856020860162003bce565b62003b838162003c69565b840191505092915050565b6000602082019050818103600083015262003baa818462003b4d565b905092915050565b600081519050919050565b600082825260208201905092915050565b60005b8381101562003bee57808201518184015260208101905062003bd1565b8381111562003bfe576000848401525b50505050565b6000600282049050600182168062003c1d57607f821691505b6020821081141562003c345762003c3362003c3a565b5b50919050565b7f4e487b7100000000000000000000000000000000000000000000000000000000600052602260045260246000fd5b6000601f19601f8301169050919050565b61393c8062003c8a6000396000f3fe608060405234801561001057600080fd5b50600436106101165760003560e01c806370a08231116100a2578063b88d4fde11610071578063b88d4fde14610305578063c575757a14610321578063c87b56dd14610351578063de9d132f14610381578063e985e9c51461038b57610116565b806370a082311461026b57806395d89b411461029b578063a22cb465146102b9578063b187301f146102d557610116565b8063095ea7b3116100e9578063095ea7b3146101b757806323b872dd146101d35780632de38d68146101ef57806342842e0e1461021f5780636352211e1461023b57610116565b806301ffc9a71461011b578063060475901461014b57806306fdde0314610169578063081812fc14610187575b600080fd5b610135600480360381019061013091906124b4565b6103bb565b6040516101429190613192565b60405180910390f35b61015361049d565b604051610160919061342d565b60405180910390f35b6101716104ae565b60405161017e91906131ad565b60405180910390f35b6101a1600480360381019061019c9190612506565b610540565b6040516101ae9190613102565b60405180910390f35b6101d160048036038101906101cc9190612478565b6105c5565b005b6101ed60048036038101906101e89190612372565b6106dd565b005b61020960048036038101906102049190612506565b61073d565b60405161021691906131ad565b60405180910390f35b61023960048036038101906102349190612372565b61085b565b005b61025560048036038101906102509190612506565b61087b565b6040516102629190613102565b60405180910390f35b6102856004803603810190610280919061230d565b61092d565b604051610292919061342d565b60405180910390f35b6102a36109e5565b6040516102b091906131ad565b60405180910390f35b6102d360048036038101906102ce919061243c565b610a77565b005b6102ef60048036038101906102ea9190612506565b610bf8565b6040516102fc91906131ad565b60405180910390f35b61031f600480360381019061031a91906123c1565b610d16565b005b61033b60048036038101906103369190612506565b610d78565b60405161034891906131ad565b60405180910390f35b61036b60048036038101906103669190612506565b610e96565b60405161037891906131ad565b60405180910390f35b610389610fe8565b005b6103a560048036038101906103a09190612336565b61118d565b6040516103b29190613192565b60405180910390f35b60007f80ac58cd000000000000000000000000000000000000000000000000000000007bffffffffffffffffffffffffffffffffffffffffffffffffffffffff1916827bffffffffffffffffffffffffffffffffffffffffffffffffffffffff1916148061048657507f5b5e139f000000000000000000000000000000000000000000000000000000007bffffffffffffffffffffffffffffffffffffffffffffffffffffffff1916827bffffffffffffffffffffffffffffffffffffffffffffffffffffffff1916145b806104965750610495826112ba565b5b9050919050565b60006104a96007611324565b905090565b6060600080546104bd906136cc565b80601f01602080910402602001604051908101604052809291908181526020018280546104e9906136cc565b80156105365780601f1061050b57610100808354040283529160200191610536565b820191906000526020600020905b81548152906001019060200180831161051957829003601f168201915b5050505050905090565b600061054b82611332565b61058a576040517f08c379a00000000000000000000000000000000000000000000000000000000081526004016105819061338d565b60405180910390fd5b6004600083815260200190815260200160002060009054906101000a900473ffffffffffffffffffffffffffffffffffffffff169050919050565b60006105d08261087b565b90508073ffffffffffffffffffffffffffffffffffffffff168373ffffffffffffffffffffffffffffffffffffffff161415610641576040517f08c379a0000000000000000000000000000000000000000000000000000000008152600401610638906133ed565b60405180910390fd5b8073ffffffffffffffffffffffffffffffffffffffff1661066061139e565b73ffffffffffffffffffffffffffffffffffffffff16148061068f575061068e8161068961139e565b61118d565b5b6106ce576040517f08c379a00000000000000000000000000000000000000000000000000000000081526004016106c5906132cd565b60405180910390fd5b6106d883836113a6565b505050565b6106ee6106e861139e565b8261145f565b61072d576040517f08c379a00000000000000000000000000000000000000000000000000000000081526004016107249061340d565b60405180910390fd5b61073883838361153d565b505050565b6060600061077161074d84611799565b60405160200161075d91906130be565b604051602081830303815290604052611946565b9050600980549050816107849190613747565b9050600981815481106107c0577f4e487b7100000000000000000000000000000000000000000000000000000000600052603260045260246000fd5b9060005260206000200180546107d5906136cc565b80601f0160208091040260200160405190810160405280929190818152602001828054610801906136cc565b801561084e5780601f106108235761010080835404028352916020019161084e565b820191906000526020600020905b81548152906001019060200180831161083157829003601f168201915b5050505050915050919050565b61087683838360405180602001604052806000815250610d16565b505050565b6000806002600084815260200190815260200160002060009054906101000a900473ffffffffffffffffffffffffffffffffffffffff169050600073ffffffffffffffffffffffffffffffffffffffff168173ffffffffffffffffffffffffffffffffffffffff161415610924576040517f08c379a000000000000000000000000000000000000000000000000000000000815260040161091b9061330d565b60405180910390fd5b80915050919050565b60008073ffffffffffffffffffffffffffffffffffffffff168273ffffffffffffffffffffffffffffffffffffffff16141561099e576040517f08c379a0000000000000000000000000000000000000000000000000000000008152600401610995906132ed565b60405180910390fd5b600360008373ffffffffffffffffffffffffffffffffffffffff1673ffffffffffffffffffffffffffffffffffffffff168152602001908152602001600020549050919050565b6060600180546109f4906136cc565b80601f0160208091040260200160405190810160405280929190818152602001828054610a20906136cc565b8015610a6d5780601f10610a4257610100808354040283529160200191610a6d565b820191906000526020600020905b815481529060010190602001808311610a5057829003601f168201915b5050505050905090565b610a7f61139e565b73ffffffffffffffffffffffffffffffffffffffff168273ffffffffffffffffffffffffffffffffffffffff161415610aed576040517f08c379a0000000000000000000000000000000000000000000000000000000008152600401610ae49061328d565b60405180910390fd5b8060056000610afa61139e565b73ffffffffffffffffffffffffffffffffffffffff1673ffffffffffffffffffffffffffffffffffffffff16815260200190815260200160002060008473ffffffffffffffffffffffffffffffffffffffff1673ffffffffffffffffffffffffffffffffffffffff16815260200190815260200160002060006101000a81548160ff0219169083151502179055508173ffffffffffffffffffffffffffffffffffffffff16610ba761139e565b73ffffffffffffffffffffffffffffffffffffffff167f17307eab39ab6107e8899845ad3d59bd9653f200f220920489ca2b5937696c3183604051610bec9190613192565b60405180910390a35050565b60606000610c2c610c0884611799565b604051602001610c189190613057565b604051602081830303815290604052611946565b9050600a8054905081610c3f9190613747565b9050600a8181548110610c7b577f4e487b7100000000000000000000000000000000000000000000000000000000600052603260045260246000fd5b906000526020600020018054610c90906136cc565b80601f0160208091040260200160405190810160405280929190818152602001828054610cbc906136cc565b8015610d095780601f10610cde57610100808354040283529160200191610d09565b820191906000526020600020905b815481529060010190602001808311610cec57829003601f168201915b5050505050915050919050565b610d27610d2161139e565b8361145f565b610d66576040517f08c379a0000000000000000000000000000000000000000000000000000000008152600401610d5d9061340d565b60405180910390fd5b610d7284848484611979565b50505050565b60606000610dac610d8884611799565b604051602001610d989190613035565b604051602081830303815290604052611946565b9050600b8054905081610dbf9190613747565b9050600b8181548110610dfb577f4e487b7100000000000000000000000000000000000000000000000000000000600052603260045260246000fd5b906000526020600020018054610e10906136cc565b80601f0160208091040260200160405190810160405280929190818152602001828054610e3c906136cc565b8015610e895780601f10610e5e57610100808354040283529160200191610e89565b820191906000526020600020905b815481529060010190602001808311610e6c57829003601f168201915b5050505050915050919050565b6060610ea182611332565b610ee0576040517f08c379a0000000000000000000000000000000000000000000000000000000008152600401610ed79061336d565b60405180910390fd5b6000600660008481526020019081526020016000208054610f00906136cc565b80601f0160208091040260200160405190810160405280929190818152602001828054610f2c906136cc565b8015610f795780601f10610f4e57610100808354040283529160200191610f79565b820191906000526020600020905b815481529060010190602001808311610f5c57829003601f168201915b505050505090506000610f8a6119d5565b9050600081511415610fa0578192505050610fe3565b600082511115610fd5578082604051602001610fbd929190612f9b565b60405160208183030381529060405292505050610fe3565b610fde846119ec565b925050505b919050565b6000610ff46007611324565b905060328110611039576040517f08c379a00000000000000000000000000000000000000000000000000000000081526004016110309061320d565b60405180910390fd5b60006110448261073d565b9050600061105183610bf8565b9050600061105e84610d78565b9050600083838360405160200161107793929190612fbf565b6040516020818303038152906040529050600060088260405160200161109e929190613006565b604051602081830303815290604052905060006110e3836110be84611a93565b6040516020016110cf929190613079565b604051602081830303815290604052611a93565b90506000816040516020016110f891906130e0565b60405160208183030381529060405290506111133389611c51565b61111d8882611c6f565b6111276007611ce3565b61114a6040518060600160405280602581526020016138a2602591398933611cf9565b7febb98688741ffa4c7589bf325de30cf7becb63de567842e1ccdb6cb949fdc82c338960405161117b929190613169565b60405180910390a15050505050505050565b6000600560008473ffffffffffffffffffffffffffffffffffffffff1673ffffffffffffffffffffffffffffffffffffffff16815260200190815260200160002060008373ffffffffffffffffffffffffffffffffffffffff1673ffffffffffffffffffffffffffffffffffffffff16815260200190815260200160002060009054906101000a900460ff16905092915050565b6112b78160405160240161123591906131ad565b6040516020818303038152906040527f41304fac000000000000000000000000000000000000000000000000000000007bffffffffffffffffffffffffffffffffffffffffffffffffffffffff19166020820180517bffffffffffffffffffffffffffffffffffffffffffffffffffffffff8381831617835250505050611d98565b50565b60007f01ffc9a7000000000000000000000000000000000000000000000000000000007bffffffffffffffffffffffffffffffffffffffffffffffffffffffff1916827bffffffffffffffffffffffffffffffffffffffffffffffffffffffff1916149050919050565b600081600001549050919050565b60008073ffffffffffffffffffffffffffffffffffffffff166002600084815260200190815260200160002060009054906101000a900473ffffffffffffffffffffffffffffffffffffffff1673ffffffffffffffffffffffffffffffffffffffff1614159050919050565b600033905090565b816004600083815260200190815260200160002060006101000a81548173ffffffffffffffffffffffffffffffffffffffff021916908373ffffffffffffffffffffffffffffffffffffffff160217905550808273ffffffffffffffffffffffffffffffffffffffff166114198361087b565b73ffffffffffffffffffffffffffffffffffffffff167f8c5be1e5ebec7d5bd14f71427d1e84f3dd0314c0f7b2291e5b200ac8c7c3b92560405160405180910390a45050565b600061146a82611332565b6114a9576040517f08c379a00000000000000000000000000000000000000000000000000000000081526004016114a0906132ad565b60405180910390fd5b60006114b48361087b565b90508073ffffffffffffffffffffffffffffffffffffffff168473ffffffffffffffffffffffffffffffffffffffff16148061152357508373ffffffffffffffffffffffffffffffffffffffff1661150b84610540565b73ffffffffffffffffffffffffffffffffffffffff16145b806115345750611533818561118d565b5b91505092915050565b8273ffffffffffffffffffffffffffffffffffffffff1661155d8261087b565b73ffffffffffffffffffffffffffffffffffffffff16146115b3576040517f08c379a00000000000000000000000000000000000000000000000000000000081526004016115aa906133ad565b60405180910390fd5b600073ffffffffffffffffffffffffffffffffffffffff168273ffffffffffffffffffffffffffffffffffffffff161415611623576040517f08c379a000000000000000000000000000000000000000000000000000000000815260040161161a9061326d565b60405180910390fd5b61162e838383611dc1565b6116396000826113a6565b6001600360008573ffffffffffffffffffffffffffffffffffffffff1673ffffffffffffffffffffffffffffffffffffffff168152602001908152602001600020600082825461168991906135e2565b925050819055506001600360008473ffffffffffffffffffffffffffffffffffffffff1673ffffffffffffffffffffffffffffffffffffffff16815260200190815260200160002060008282546116e09190613501565b92505081905550816002600083815260200190815260200160002060006101000a81548173ffffffffffffffffffffffffffffffffffffffff021916908373ffffffffffffffffffffffffffffffffffffffff160217905550808273ffffffffffffffffffffffffffffffffffffffff168473ffffffffffffffffffffffffffffffffffffffff167fddf252ad1be2c89b69c2b068fc378daa952ba7f163c4a11628f55a4df523b3ef60405160405180910390a4505050565b606060008214156117e1576040518060400160405280600181526020017f30000000000000000000000000000000000000000000000000000000000000008152509050611941565b600082905060005b600082146118135780806117fc906136fe565b915050600a8261180c9190613557565b91506117e9565b60008167ffffffffffffffff811115611855577f4e487b7100000000000000000000000000000000000000000000000000000000600052604160045260246000fd5b6040519080825280601f01601f1916602001820160405280156118875781602001600182028036833780820191505090505b5090505b6000851461193a576001826118a091906135e2565b9150600a856118af9190613747565b60306118bb9190613501565b60f81b8183815181106118f7577f4e487b7100000000000000000000000000000000000000000000000000000000600052603260045260246000fd5b60200101907effffffffffffffffffffffffffffffffffffffffffffffffffffffffffffff1916908160001a905350600a856119339190613557565b945061188b565b8093505050505b919050565b6000816040516020016119599190612f84565b6040516020818303038152906040528051906020012060001c9050919050565b61198484848461153d565b61199084848484611dc6565b6119cf576040517f08c379a00000000000000000000000000000000000000000000000000000000081526004016119c69061322d565b60405180910390fd5b50505050565b606060405180602001604052806000815250905090565b60606119f782611332565b611a36576040517f08c379a0000000000000000000000000000000000000000000000000000000008152600401611a2d906133cd565b60405180910390fd5b6000611a406119d5565b90506000815111611a605760405180602001604052806000815250611a8b565b80611a6a84611799565b604051602001611a7b929190612f9b565b6040516020818303038152906040525b915050919050565b60606000825190506000811415611abc5760405180602001604052806000815250915050611c4c565b60006003600283611acd9190613501565b611ad79190613557565b6004611ae39190613588565b90506000602082611af49190613501565b67ffffffffffffffff811115611b33577f4e487b7100000000000000000000000000000000000000000000000000000000600052604160045260246000fd5b6040519080825280601f01601f191660200182016040528015611b655781602001600182028036833780820191505090505b50905060006040518060600160405280604081526020016138c7604091399050600181016020830160005b86811015611c095760038101905062ffffff818a015116603f8160121c168401518060081b905060ff603f83600c1c1686015116810190508060081b905060ff603f8360061c1686015116810190508060081b905060ff603f831686015116810190508060e01b90508084526004840193505050611b90565b506003860660018114611c235760028114611c3357611c3e565b613d3d60f01b6002830352611c3e565b603d60f81b60018303525b508484525050819450505050505b919050565b611c6b828260405180602001604052806000815250611f5d565b5050565b611c7882611332565b611cb7576040517f08c379a0000000000000000000000000000000000000000000000000000000008152600401611cae9061332d565b60405180910390fd5b80600660008481526020019081526020016000209080519060200190611cde929190612199565b505050565b6001816000016000828254019250508190555050565b611d93838383604051602401611d11939291906131cf565b6040516020818303038152906040527fe3849f79000000000000000000000000000000000000000000000000000000007bffffffffffffffffffffffffffffffffffffffffffffffffffffffff19166020820180517bffffffffffffffffffffffffffffffffffffffffffffffffffffffff8381831617835250505050611d98565b505050565b60008151905060006a636f6e736f6c652e6c6f679050602083016000808483855afa5050505050565b505050565b6000611de78473ffffffffffffffffffffffffffffffffffffffff16611fb8565b15611f50578373ffffffffffffffffffffffffffffffffffffffff1663150b7a02611e1061139e565b8786866040518563ffffffff1660e01b8152600401611e32949392919061311d565b602060405180830381600087803b158015611e4c57600080fd5b505af1925050508015611e7d57506040513d601f19601f82011682018060405250810190611e7a91906124dd565b60015b611f00573d8060008114611ead576040519150601f19603f3d011682016040523d82523d6000602084013e611eb2565b606091505b50600081511415611ef8576040517f08c379a0000000000000000000000000000000000000000000000000000000008152600401611eef9061322d565b60405180910390fd5b805181602001fd5b63150b7a0260e01b7bffffffffffffffffffffffffffffffffffffffffffffffffffffffff1916817bffffffffffffffffffffffffffffffffffffffffffffffffffffffff191614915050611f55565b600190505b949350505050565b611f678383611fcb565b611f746000848484611dc6565b611fb3576040517f08c379a0000000000000000000000000000000000000000000000000000000008152600401611faa9061322d565b60405180910390fd5b505050565b600080823b905060008111915050919050565b600073ffffffffffffffffffffffffffffffffffffffff168273ffffffffffffffffffffffffffffffffffffffff16141561203b576040517f08c379a00000000000000000000000000000000000000000000000000000000081526004016120329061334d565b60405180910390fd5b61204481611332565b15612084576040517f08c379a000000000000000000000000000000000000000000000000000000000815260040161207b9061324d565b60405180910390fd5b61209060008383611dc1565b6001600360008473ffffffffffffffffffffffffffffffffffffffff1673ffffffffffffffffffffffffffffffffffffffff16815260200190815260200160002060008282546120e09190613501565b92505081905550816002600083815260200190815260200160002060006101000a81548173ffffffffffffffffffffffffffffffffffffffff021916908373ffffffffffffffffffffffffffffffffffffffff160217905550808273ffffffffffffffffffffffffffffffffffffffff16600073ffffffffffffffffffffffffffffffffffffffff167fddf252ad1be2c89b69c2b068fc378daa952ba7f163c4a11628f55a4df523b3ef60405160405180910390a45050565b8280546121a5906136cc565b90600052602060002090601f0160209004810192826121c7576000855561220e565b82601f106121e057805160ff191683800117855561220e565b8280016001018555821561220e579182015b8281111561220d5782518255916020019190600101906121f2565b5b50905061221b919061221f565b5090565b5b80821115612238576000816000905550600101612220565b5090565b600061224f61224a84613479565b613448565b90508281526020810184848401111561226757600080fd5b61227284828561368a565b509392505050565b60008135905061228981613845565b92915050565b60008135905061229e8161385c565b92915050565b6000813590506122b381613873565b92915050565b6000815190506122c881613873565b92915050565b600082601f8301126122df57600080fd5b81356122ef84826020860161223c565b91505092915050565b6000813590506123078161388a565b92915050565b60006020828403121561231f57600080fd5b600061232d8482850161227a565b91505092915050565b6000806040838503121561234957600080fd5b60006123578582860161227a565b92505060206123688582860161227a565b9150509250929050565b60008060006060848603121561238757600080fd5b60006123958682870161227a565b93505060206123a68682870161227a565b92505060406123b7868287016122f8565b9150509250925092565b600080600080608085870312156123d757600080fd5b60006123e58782880161227a565b94505060206123f68782880161227a565b9350506040612407878288016122f8565b925050606085013567ffffffffffffffff81111561242457600080fd5b612430878288016122ce565b91505092959194509250565b6000806040838503121561244f57600080fd5b600061245d8582860161227a565b925050602061246e8582860161228f565b9150509250929050565b6000806040838503121561248b57600080fd5b60006124998582860161227a565b92505060206124aa858286016122f8565b9150509250929050565b6000602082840312156124c657600080fd5b60006124d4848285016122a4565b91505092915050565b6000602082840312156124ef57600080fd5b60006124fd848285016122b9565b91505092915050565b60006020828403121561251857600080fd5b6000612526848285016122f8565b91505092915050565b61253881613616565b82525050565b61254781613628565b82525050565b6000612558826134be565b61256281856134d4565b9350612572818560208601613699565b61257b81613834565b840191505092915050565b6000612591826134c9565b61259b81856134e5565b93506125ab818560208601613699565b6125b481613834565b840191505092915050565b60006125ca826134c9565b6125d481856134f6565b93506125e4818560208601613699565b80840191505092915050565b600081546125fd816136cc565b61260781866134f6565b94506001821660008114612622576001811461263357612666565b60ff19831686528186019350612666565b61263c856134a9565b60005b8381101561265e5781548189015260018201915060208101905061263f565b838801955050505b50505092915050565b600061267c6028836134e5565b91507f43616e206f6e6c79206d696e74203530204e465473207769746820746869732060008301527f636f6e74726163740000000000000000000000000000000000000000000000006020830152604082019050919050565b60006126e26032836134e5565b91507f4552433732313a207472616e7366657220746f206e6f6e20455243373231526560008301527f63656976657220696d706c656d656e74657200000000000000000000000000006020830152604082019050919050565b6000612748601c836134e5565b91507f4552433732313a20746f6b656e20616c7265616479206d696e746564000000006000830152602082019050919050565b6000612788600a836134f6565b91507f54484952445f574f5244000000000000000000000000000000000000000000006000830152600a82019050919050565b60006127c86024836134e5565b91507f4552433732313a207472616e7366657220746f20746865207a65726f2061646460008301527f72657373000000000000000000000000000000000000000000000000000000006020830152604082019050919050565b600061282e6019836134e5565b91507f4552433732313a20617070726f766520746f2063616c6c6572000000000000006000830152602082019050919050565b600061286e6063836134f6565b91507f222c20226465736372697074696f6e223a20224120686967686c79206163636c60008301527f61696d656420636f6c6c656374696f6e206f6620737175617265732e222c202260208301527f696d616765223a2022646174613a696d6167652f7376672b786d6c3b6261736560408301527f36342c00000000000000000000000000000000000000000000000000000000006060830152606382019050919050565b6000612920600b836134f6565b91507f5345434f4e445f574f52440000000000000000000000000000000000000000006000830152600b82019050919050565b6000612960602c836134e5565b91507f4552433732313a206f70657261746f7220717565727920666f72206e6f6e657860008301527f697374656e7420746f6b656e00000000000000000000000000000000000000006020830152604082019050919050565b60006129c6600d836134f6565b91507f3c2f746578743e3c2f7376673e000000000000000000000000000000000000006000830152600d82019050919050565b6000612a066038836134e5565b91507f4552433732313a20617070726f76652063616c6c6572206973206e6f74206f7760008301527f6e6572206e6f7220617070726f76656420666f7220616c6c00000000000000006020830152604082019050919050565b6000612a6c602a836134e5565b91507f4552433732313a2062616c616e636520717565727920666f7220746865207a6560008301527f726f2061646472657373000000000000000000000000000000000000000000006020830152604082019050919050565b6000612ad26029836134e5565b91507f4552433732313a206f776e657220717565727920666f72206e6f6e657869737460008301527f656e7420746f6b656e00000000000000000000000000000000000000000000006020830152604082019050919050565b6000612b38602e836134e5565b91507f45524337323155524953746f726167653a2055524920736574206f66206e6f6e60008301527f6578697374656e7420746f6b656e0000000000000000000000000000000000006020830152604082019050919050565b6000612b9e6002836134f6565b91507f227d0000000000000000000000000000000000000000000000000000000000006000830152600282019050919050565b6000612bde6020836134e5565b91507f4552433732313a206d696e7420746f20746865207a65726f20616464726573736000830152602082019050919050565b6000612c1e6031836134e5565b91507f45524337323155524953746f726167653a2055524920717565727920666f722060008301527f6e6f6e6578697374656e7420746f6b656e0000000000000000000000000000006020830152604082019050919050565b6000612c84602c836134e5565b91507f4552433732313a20617070726f76656420717565727920666f72206e6f6e657860008301527f697374656e7420746f6b656e00000000000000000000000000000000000000006020830152604082019050919050565b6000612cea6003836134f6565b91507f202d2000000000000000000000000000000000000000000000000000000000006000830152600382019050919050565b6000612d2a6029836134e5565b91507f4552433732313a207472616e73666572206f6620746f6b656e2074686174206960008301527f73206e6f74206f776e00000000000000000000000000000000000000000000006020830152604082019050919050565b6000612d90602f836134e5565b91507f4552433732314d657461646174613a2055524920717565727920666f72206e6f60008301527f6e6578697374656e7420746f6b656e00000000000000000000000000000000006020830152604082019050919050565b6000612df6600a836134f6565b91507f7b226e616d65223a2022000000000000000000000000000000000000000000006000830152600a82019050919050565b6000612e366021836134e5565b91507f4552433732313a20617070726f76616c20746f2063757272656e74206f776e6560008301527f72000000000000000000000000000000000000000000000000000000000000006020830152604082019050919050565b6000612e9c600a836134f6565b91507f46495253545f574f5244000000000000000000000000000000000000000000006000830152600a82019050919050565b6000612edc601d836134f6565b91507f646174613a6170706c69636174696f6e2f6a736f6e3b6261736536342c0000006000830152601d82019050919050565b6000612f1c6031836134e5565b91507f4552433732313a207472616e736665722063616c6c6572206973206e6f74206f60008301527f776e6572206e6f7220617070726f7665640000000000000000000000000000006020830152604082019050919050565b612f7e81613680565b82525050565b6000612f9082846125bf565b915081905092915050565b6000612fa782856125bf565b9150612fb382846125bf565b91508190509392505050565b6000612fcb82866125bf565b9150612fd682612cdd565b9150612fe282856125bf565b9150612fed82612cdd565b9150612ff982846125bf565b9150819050949350505050565b600061301282856125f0565b915061301e82846125bf565b9150613029826129b9565b91508190509392505050565b60006130408261277b565b915061304c82846125bf565b915081905092915050565b600061306282612913565b915061306e82846125bf565b915081905092915050565b600061308482612de9565b915061309082856125bf565b915061309b82612861565b91506130a782846125bf565b91506130b282612b91565b91508190509392505050565b60006130c982612e8f565b91506130d582846125bf565b915081905092915050565b60006130eb82612ecf565b91506130f782846125bf565b915081905092915050565b6000602082019050613117600083018461252f565b92915050565b6000608082019050613132600083018761252f565b61313f602083018661252f565b61314c6040830185612f75565b818103606083015261315e818461254d565b905095945050505050565b600060408201905061317e600083018561252f565b61318b6020830184612f75565b9392505050565b60006020820190506131a7600083018461253e565b92915050565b600060208201905081810360008301526131c78184612586565b905092915050565b600060608201905081810360008301526131e98186612586565b90506131f86020830185612f75565b613205604083018461252f565b949350505050565b600060208201905081810360008301526132268161266f565b9050919050565b60006020820190508181036000830152613246816126d5565b9050919050565b600060208201905081810360008301526132668161273b565b9050919050565b60006020820190508181036000830152613286816127bb565b9050919050565b600060208201905081810360008301526132a681612821565b9050919050565b600060208201905081810360008301526132c681612953565b9050919050565b600060208201905081810360008301526132e6816129f9565b9050919050565b6000602082019050818103600083015261330681612a5f565b9050919050565b6000602082019050818103600083015261332681612ac5565b9050919050565b6000602082019050818103600083015261334681612b2b565b9050919050565b6000602082019050818103600083015261336681612bd1565b9050919050565b6000602082019050818103600083015261338681612c11565b9050919050565b600060208201905081810360008301526133a681612c77565b9050919050565b600060208201905081810360008301526133c681612d1d565b9050919050565b600060208201905081810360008301526133e681612d83565b9050919050565b6000602082019050818103600083015261340681612e29565b9050919050565b6000602082019050818103600083015261342681612f0f565b9050919050565b60006020820190506134426000830184612f75565b92915050565b6000604051905081810181811067ffffffffffffffff8211171561346f5761346e613805565b5b8060405250919050565b600067ffffffffffffffff82111561349457613493613805565b5b601f19601f8301169050602081019050919050565b60008190508160005260206000209050919050565b600081519050919050565b600081519050919050565b600082825260208201905092915050565b600082825260208201905092915050565b600081905092915050565b600061350c82613680565b915061351783613680565b9250827fffffffffffffffffffffffffffffffffffffffffffffffffffffffffffffffff0382111561354c5761354b613778565b5b828201905092915050565b600061356282613680565b915061356d83613680565b92508261357d5761357c6137a7565b5b828204905092915050565b600061359382613680565b915061359e83613680565b9250817fffffffffffffffffffffffffffffffffffffffffffffffffffffffffffffffff04831182151516156135d7576135d6613778565b5b828202905092915050565b60006135ed82613680565b91506135f883613680565b92508282101561360b5761360a613778565b5b828203905092915050565b600061362182613660565b9050919050565b60008115159050919050565b60007fffffffff0000000000000000000000000000000000000000000000000000000082169050919050565b600073ffffffffffffffffffffffffffffffffffffffff82169050919050565b6000819050919050565b82818337600083830152505050565b60005b838110156136b757808201518184015260208101905061369c565b838111156136c6576000848401525b50505050565b600060028204905060018216806136e457607f821691505b602082108114156136f8576136f76137d6565b5b50919050565b600061370982613680565b91507fffffffffffffffffffffffffffffffffffffffffffffffffffffffffffffffff82141561373c5761373b613778565b5b600182019050919050565b600061375282613680565b915061375d83613680565b92508261376d5761376c6137a7565b5b828206905092915050565b7f4e487b7100000000000000000000000000000000000000000000000000000000600052601160045260246000fd5b7f4e487b7100000000000000000000000000000000000000000000000000000000600052601260045260246000fd5b7f4e487b7100000000000000000000000000000000000000000000000000000000600052602260045260246000fd5b7f4e487b7100000000000000000000000000000000000000000000000000000000600052604160045260246000fd5b6000601f19601f8301169050919050565b61384e81613616565b811461385957600080fd5b50565b61386581613628565b811461387057600080fd5b50565b61387c81613634565b811461388757600080fd5b50565b61389381613680565b811461389e57600080fd5b5056fe416e204e465420772f20494420257320686173206265656e206d696e74656420746f2025734142434445464748494a4b4c4d4e4f505152535455565758595a6162636465666768696a6b6c6d6e6f707172737475767778797a303132333435363738392b2fa26469706673582212209f76ed26d899df226819999b8d6d0dd0a602cd9365131a64ca2f06cd2844741c64736f6c634300080000333c73766720786d6c6e733d27687474703a2f2f7777772e77332e6f72672f323030302f73766727207072657365727665417370656374526174696f3d27784d696e594d696e206d656574272076696577426f783d273020302033353020333530273e3c7374796c653e2e62617365207b2066696c6c3a2077686974653b20666f6e742d66616d696c793a2073657269663b20666f6e742d73697a653a20323470783b207d3c2f7374796c653e3c726563742077696474683d273130302527206865696768743d2731303025272066696c6c3d27626c61636b27202f3e3c7465787420783d273530252720793d273530252720636c6173733d27626173652720646f6d696e616e742d626173656c696e653d276d6964646c652720746578742d616e63686f723d276d6964646c65273e",
  "linkReferences": {},
  "deployedLinkReferences": {}
}